{
	"data": {
		"bytecode": {
			"linkReferences": {},
			"object": "60806040526040518060400160405280600781526020016040518060400160405280600481526020017f596173680000000000000000000000000000000000000000000000000000000081525081525060015f820151815f01556020820151816001019081620000709190620002ea565b5050503480156200007f575f80fd5b50620003ce565b5f81519050919050565b7f4e487b71000000000000000000000000000000000000000000000000000000005f52604160045260245ffd5b7f4e487b71000000000000000000000000000000000000000000000000000000005f52602260045260245ffd5b5f60028204905060018216806200010257607f821691505b602082108103620001185762000117620000bd565b5b50919050565b5f819050815f5260205f209050919050565b5f6020601f8301049050919050565b5f82821b905092915050565b5f600883026200017c7fffffffffffffffffffffffffffffffffffffffffffffffffffffffffffffffff826200013f565b6200018886836200013f565b95508019841693508086168417925050509392505050565b5f819050919050565b5f819050919050565b5f620001d2620001cc620001c684620001a0565b620001a9565b620001a0565b9050919050565b5f819050919050565b620001ed83620001b2565b62000205620001fc82620001d9565b8484546200014b565b825550505050565b5f90565b6200021b6200020d565b62000228818484620001e2565b505050565b5b818110156200024f57620002435f8262000211565b6001810190506200022e565b5050565b601f8211156200029e5762000268816200011e565b620002738462000130565b8101602085101562000283578190505b6200029b620002928562000130565b8301826200022d565b50505b505050565b5f82821c905092915050565b5f620002c05f1984600802620002a3565b1980831691505092915050565b5f620002da8383620002af565b9150826002028217905092915050565b620002f58262000086565b67ffffffffffffffff81111562000311576200031062000090565b5b6200031d8254620000ea565b6200032a82828562000253565b5f60209050601f83116001811462000360575f84156200034b578287015190505b620003578582620002cd565b865550620003c6565b601f19841662000370866200011e565b5f5b82811015620003995784890151825560018201915060208501945060208101905062000372565b86831015620003b95784890151620003b5601f891682620002af565b8355505b6001600288020188555050505b505050505050565b610b4680620003dc5f395ff3fe608060405234801561000f575f80fd5b5060043610610086575f3560e01c80636057361d116100595780636057361d146101275780636231cc16146101435780636f760f4114610174578063af16a7231461019057610086565b80631c124f1b1461008a5780632e5effac146100a85780632e64cec1146100d957806343ec8f47146100f7575b5f80fd5b6100926101af565b60405161009f9190610493565b60405180910390f35b6100c260048036038101906100bd91906104e7565b6101b4565b6040516100d092919061059c565b60405180910390f35b6100e1610269565b6040516100ee9190610493565b60405180910390f35b610111600480360381019061010c91906106f6565b610271565b60405161011e9190610493565b60405180910390f35b610141600480360381019061013c91906104e7565b61029e565b005b61015d600480360381019061015891906104e7565b6102b3565b60405161016b92919061059c565b60405180910390f35b61018e6004803603810190610189919061073d565b610360565b005b6101986103e4565b6040516101a692919061059c565b60405180910390f35b5f5481565b600381815481106101c3575f80fd5b905f5260205f2090600202015f91509050805f0154908060010180546101e8906107c4565b80601f0160208091040260200160405190810160405280929190818152602001828054610214906107c4565b801561025f5780601f106102365761010080835404028352916020019161025f565b820191905f5260205f20905b81548152906001019060200180831161024257829003601f168201915b5050505050905082565b5f8054905090565b600a818051602081018201805184825260208301602085012081835280955050505050505f915090505481565b6005816102ab9190610821565b5f8190555050565b600481600381106102c2575f80fd5b600202015f91509050805f0154908060010180546102df906107c4565b80601f016020809104026020016040519081016040528092919081815260200182805461030b906107c4565b80156103565780601f1061032d57610100808354040283529160200191610356565b820191905f5260205f20905b81548152906001019060200180831161033957829003601f168201915b5050505050905082565b6003604051806040016040528083815260200184815250908060018154018082558091505060019003905f5260205f2090600202015f909190919091505f820151815f015560208201518160010190816103ba91906109f1565b50505080600a836040516103ce9190610afa565b9081526020016040518091039020819055505050565b6001805f0154908060010180546103fa906107c4565b80601f0160208091040260200160405190810160405280929190818152602001828054610426906107c4565b80156104715780601f1061044857610100808354040283529160200191610471565b820191905f5260205f20905b81548152906001019060200180831161045457829003601f168201915b5050505050905082565b5f819050919050565b61048d8161047b565b82525050565b5f6020820190506104a65f830184610484565b92915050565b5f604051905090565b5f80fd5b5f80fd5b6104c68161047b565b81146104d0575f80fd5b50565b5f813590506104e1816104bd565b92915050565b5f602082840312156104fc576104fb6104b5565b5b5f610509848285016104d3565b91505092915050565b5f81519050919050565b5f82825260208201905092915050565b5f5b8381101561054957808201518184015260208101905061052e565b5f8484015250505050565b5f601f19601f8301169050919050565b5f61056e82610512565b610578818561051c565b935061058881856020860161052c565b61059181610554565b840191505092915050565b5f6040820190506105af5f830185610484565b81810360208301526105c18184610564565b90509392505050565b5f80fd5b5f80fd5b7f4e487b71000000000000000000000000000000000000000000000000000000005f52604160045260245ffd5b61060882610554565b810181811067ffffffffffffffff82111715610627576106266105d2565b5b80604052505050565b5f6106396104ac565b905061064582826105ff565b919050565b5f67ffffffffffffffff821115610664576106636105d2565b5b61066d82610554565b9050602081019050919050565b828183375f83830152505050565b5f61069a6106958461064a565b610630565b9050828152602081018484840111156106b6576106b56105ce565b5b6106c184828561067a565b509392505050565b5f82601f8301126106dd576106dc6105ca565b5b81356106ed848260208601610688565b91505092915050565b5f6020828403121561070b5761070a6104b5565b5b5f82013567ffffffffffffffff811115610728576107276104b9565b5b610734848285016106c9565b91505092915050565b5f8060408385031215610753576107526104b5565b5b5f83013567ffffffffffffffff8111156107705761076f6104b9565b5b61077c858286016106c9565b925050602061078d858286016104d3565b9150509250929050565b7f4e487b71000000000000000000000000000000000000000000000000000000005f52602260045260245ffd5b5f60028204905060018216806107db57607f821691505b6020821081036107ee576107ed610797565b5b50919050565b7f4e487b71000000000000000000000000000000000000000000000000000000005f52601160045260245ffd5b5f61082b8261047b565b91506108368361047b565b925082820190508082111561084e5761084d6107f4565b5b92915050565b5f819050815f5260205f209050919050565b5f6020601f8301049050919050565b5f82821b905092915050565b5f600883026108b07fffffffffffffffffffffffffffffffffffffffffffffffffffffffffffffffff82610875565b6108ba8683610875565b95508019841693508086168417925050509392505050565b5f819050919050565b5f6108f56108f06108eb8461047b565b6108d2565b61047b565b9050919050565b5f819050919050565b61090e836108db565b61092261091a826108fc565b848454610881565b825550505050565b5f90565b61093661092a565b610941818484610905565b505050565b5b81811015610964576109595f8261092e565b600181019050610947565b5050565b601f8211156109a95761097a81610854565b61098384610866565b81016020851015610992578190505b6109a661099e85610866565b830182610946565b50505b505050565b5f82821c905092915050565b5f6109c95f19846008026109ae565b1980831691505092915050565b5f6109e183836109ba565b9150826002028217905092915050565b6109fa82610512565b67ffffffffffffffff811115610a1357610a126105d2565b5b610a1d82546107c4565b610a28828285610968565b5f60209050601f831160018114610a59575f8415610a47578287015190505b610a5185826109d6565b865550610ab8565b601f198416610a6786610854565b5f5b82811015610a8e57848901518255600182019150602085019450602081019050610a69565b86831015610aab5784890151610aa7601f8916826109ba565b8355505b6001600288020188555050505b505050505050565b5f81905092915050565b5f610ad482610512565b610ade8185610ac0565b9350610aee81856020860161052c565b80840191505092915050565b5f610b058284610aca565b91508190509291505056fea2646970667358221220dc7cda1238981be0bceeeda57dbe1eef471a0001e2a6c7cad496cbd297ccba7464736f6c63430008180033",
			"opcodes": "PUSH1 0x80 PUSH1 0x40 MSTORE PUSH1 0x40 MLOAD DUP1 PUSH1 0x40 ADD PUSH1 0x40 MSTORE DUP1 PUSH1 0x7 DUP2 MSTORE PUSH1 0x20 ADD PUSH1 0x40 MLOAD DUP1 PUSH1 0x40 ADD PUSH1 0x40 MSTORE DUP1 PUSH1 0x4 DUP2 MSTORE PUSH1 0x20 ADD PUSH32 0x5961736800000000000000000000000000000000000000000000000000000000 DUP2 MSTORE POP DUP2 MSTORE POP PUSH1 0x1 PUSH0 DUP3 ADD MLOAD DUP2 PUSH0 ADD SSTORE PUSH1 0x20 DUP3 ADD MLOAD DUP2 PUSH1 0x1 ADD SWAP1 DUP2 PUSH3 0x70 SWAP2 SWAP1 PUSH3 0x2EA JUMP JUMPDEST POP POP POP CALLVALUE DUP1 ISZERO PUSH3 0x7F JUMPI PUSH0 DUP1 REVERT JUMPDEST POP PUSH3 0x3CE JUMP JUMPDEST PUSH0 DUP2 MLOAD SWAP1 POP SWAP2 SWAP1 POP JUMP JUMPDEST PUSH32 0x4E487B7100000000000000000000000000000000000000000000000000000000 PUSH0 MSTORE PUSH1 0x41 PUSH1 0x4 MSTORE PUSH1 0x24 PUSH0 REVERT JUMPDEST PUSH32 0x4E487B7100000000000000000000000000000000000000000000000000000000 PUSH0 MSTORE PUSH1 0x22 PUSH1 0x4 MSTORE PUSH1 0x24 PUSH0 REVERT JUMPDEST PUSH0 PUSH1 0x2 DUP3 DIV SWAP1 POP PUSH1 0x1 DUP3 AND DUP1 PUSH3 0x102 JUMPI PUSH1 0x7F DUP3 AND SWAP2 POP JUMPDEST PUSH1 0x20 DUP3 LT DUP2 SUB PUSH3 0x118 JUMPI PUSH3 0x117 PUSH3 0xBD JUMP JUMPDEST JUMPDEST POP SWAP2 SWAP1 POP JUMP JUMPDEST PUSH0 DUP2 SWAP1 POP DUP2 PUSH0 MSTORE PUSH1 0x20 PUSH0 KECCAK256 SWAP1 POP SWAP2 SWAP1 POP JUMP JUMPDEST PUSH0 PUSH1 0x20 PUSH1 0x1F DUP4 ADD DIV SWAP1 POP SWAP2 SWAP1 POP JUMP JUMPDEST PUSH0 DUP3 DUP3 SHL SWAP1 POP SWAP3 SWAP2 POP POP JUMP JUMPDEST PUSH0 PUSH1 0x8 DUP4 MUL PUSH3 0x17C PUSH32 0xFFFFFFFFFFFFFFFFFFFFFFFFFFFFFFFFFFFFFFFFFFFFFFFFFFFFFFFFFFFFFFFF DUP3 PUSH3 0x13F JUMP JUMPDEST PUSH3 0x188 DUP7 DUP4 PUSH3 0x13F JUMP JUMPDEST SWAP6 POP DUP1 NOT DUP5 AND SWAP4 POP DUP1 DUP7 AND DUP5 OR SWAP3 POP POP POP SWAP4 SWAP3 POP POP POP JUMP JUMPDEST PUSH0 DUP2 SWAP1 POP SWAP2 SWAP1 POP JUMP JUMPDEST PUSH0 DUP2 SWAP1 POP SWAP2 SWAP1 POP JUMP JUMPDEST PUSH0 PUSH3 0x1D2 PUSH3 0x1CC PUSH3 0x1C6 DUP5 PUSH3 0x1A0 JUMP JUMPDEST PUSH3 0x1A9 JUMP JUMPDEST PUSH3 0x1A0 JUMP JUMPDEST SWAP1 POP SWAP2 SWAP1 POP JUMP JUMPDEST PUSH0 DUP2 SWAP1 POP SWAP2 SWAP1 POP JUMP JUMPDEST PUSH3 0x1ED DUP4 PUSH3 0x1B2 JUMP JUMPDEST PUSH3 0x205 PUSH3 0x1FC DUP3 PUSH3 0x1D9 JUMP JUMPDEST DUP5 DUP5 SLOAD PUSH3 0x14B JUMP JUMPDEST DUP3 SSTORE POP POP POP POP JUMP JUMPDEST PUSH0 SWAP1 JUMP JUMPDEST PUSH3 0x21B PUSH3 0x20D JUMP JUMPDEST PUSH3 0x228 DUP2 DUP5 DUP5 PUSH3 0x1E2 JUMP JUMPDEST POP POP POP JUMP JUMPDEST JUMPDEST DUP2 DUP2 LT ISZERO PUSH3 0x24F JUMPI PUSH3 0x243 PUSH0 DUP3 PUSH3 0x211 JUMP JUMPDEST PUSH1 0x1 DUP2 ADD SWAP1 POP PUSH3 0x22E JUMP JUMPDEST POP POP JUMP JUMPDEST PUSH1 0x1F DUP3 GT ISZERO PUSH3 0x29E JUMPI PUSH3 0x268 DUP2 PUSH3 0x11E JUMP JUMPDEST PUSH3 0x273 DUP5 PUSH3 0x130 JUMP JUMPDEST DUP2 ADD PUSH1 0x20 DUP6 LT ISZERO PUSH3 0x283 JUMPI DUP2 SWAP1 POP JUMPDEST PUSH3 0x29B PUSH3 0x292 DUP6 PUSH3 0x130 JUMP JUMPDEST DUP4 ADD DUP3 PUSH3 0x22D JUMP JUMPDEST POP POP JUMPDEST POP POP POP JUMP JUMPDEST PUSH0 DUP3 DUP3 SHR SWAP1 POP SWAP3 SWAP2 POP POP JUMP JUMPDEST PUSH0 PUSH3 0x2C0 PUSH0 NOT DUP5 PUSH1 0x8 MUL PUSH3 0x2A3 JUMP JUMPDEST NOT DUP1 DUP4 AND SWAP2 POP POP SWAP3 SWAP2 POP POP JUMP JUMPDEST PUSH0 PUSH3 0x2DA DUP4 DUP4 PUSH3 0x2AF JUMP JUMPDEST SWAP2 POP DUP3 PUSH1 0x2 MUL DUP3 OR SWAP1 POP SWAP3 SWAP2 POP POP JUMP JUMPDEST PUSH3 0x2F5 DUP3 PUSH3 0x86 JUMP JUMPDEST PUSH8 0xFFFFFFFFFFFFFFFF DUP2 GT ISZERO PUSH3 0x311 JUMPI PUSH3 0x310 PUSH3 0x90 JUMP JUMPDEST JUMPDEST PUSH3 0x31D DUP3 SLOAD PUSH3 0xEA JUMP JUMPDEST PUSH3 0x32A DUP3 DUP3 DUP6 PUSH3 0x253 JUMP JUMPDEST PUSH0 PUSH1 0x20 SWAP1 POP PUSH1 0x1F DUP4 GT PUSH1 0x1 DUP2 EQ PUSH3 0x360 JUMPI PUSH0 DUP5 ISZERO PUSH3 0x34B JUMPI DUP3 DUP8 ADD MLOAD SWAP1 POP JUMPDEST PUSH3 0x357 DUP6 DUP3 PUSH3 0x2CD JUMP JUMPDEST DUP7 SSTORE POP PUSH3 0x3C6 JUMP JUMPDEST PUSH1 0x1F NOT DUP5 AND PUSH3 0x370 DUP7 PUSH3 0x11E JUMP JUMPDEST PUSH0 JUMPDEST DUP3 DUP2 LT ISZERO PUSH3 0x399 JUMPI DUP5 DUP10 ADD MLOAD DUP3 SSTORE PUSH1 0x1 DUP3 ADD SWAP2 POP PUSH1 0x20 DUP6 ADD SWAP5 POP PUSH1 0x20 DUP2 ADD SWAP1 POP PUSH3 0x372 JUMP JUMPDEST DUP7 DUP4 LT ISZERO PUSH3 0x3B9 JUMPI DUP5 DUP10 ADD MLOAD PUSH3 0x3B5 PUSH1 0x1F DUP10 AND DUP3 PUSH3 0x2AF JUMP JUMPDEST DUP4 SSTORE POP JUMPDEST PUSH1 0x1 PUSH1 0x2 DUP9 MUL ADD DUP9 SSTORE POP POP POP JUMPDEST POP POP POP POP POP POP JUMP JUMPDEST PUSH2 0xB46 DUP1 PUSH3 0x3DC PUSH0 CODECOPY PUSH0 RETURN INVALID PUSH1 0x80 PUSH1 0x40 MSTORE CALLVALUE DUP1 ISZERO PUSH2 0xF JUMPI PUSH0 DUP1 REVERT JUMPDEST POP PUSH1 0x4 CALLDATASIZE LT PUSH2 0x86 JUMPI PUSH0 CALLDATALOAD PUSH1 0xE0 SHR DUP1 PUSH4 0x6057361D GT PUSH2 0x59 JUMPI DUP1 PUSH4 0x6057361D EQ PUSH2 0x127 JUMPI DUP1 PUSH4 0x6231CC16 EQ PUSH2 0x143 JUMPI DUP1 PUSH4 0x6F760F41 EQ PUSH2 0x174 JUMPI DUP1 PUSH4 0xAF16A723 EQ PUSH2 0x190 JUMPI PUSH2 0x86 JUMP JUMPDEST DUP1 PUSH4 0x1C124F1B EQ PUSH2 0x8A JUMPI DUP1 PUSH4 0x2E5EFFAC EQ PUSH2 0xA8 JUMPI DUP1 PUSH4 0x2E64CEC1 EQ PUSH2 0xD9 JUMPI DUP1 PUSH4 0x43EC8F47 EQ PUSH2 0xF7 JUMPI JUMPDEST PUSH0 DUP1 REVERT JUMPDEST PUSH2 0x92 PUSH2 0x1AF JUMP JUMPDEST PUSH1 0x40 MLOAD PUSH2 0x9F SWAP2 SWAP1 PUSH2 0x493 JUMP JUMPDEST PUSH1 0x40 MLOAD DUP1 SWAP2 SUB SWAP1 RETURN JUMPDEST PUSH2 0xC2 PUSH1 0x4 DUP1 CALLDATASIZE SUB DUP2 ADD SWAP1 PUSH2 0xBD SWAP2 SWAP1 PUSH2 0x4E7 JUMP JUMPDEST PUSH2 0x1B4 JUMP JUMPDEST PUSH1 0x40 MLOAD PUSH2 0xD0 SWAP3 SWAP2 SWAP1 PUSH2 0x59C JUMP JUMPDEST PUSH1 0x40 MLOAD DUP1 SWAP2 SUB SWAP1 RETURN JUMPDEST PUSH2 0xE1 PUSH2 0x269 JUMP JUMPDEST PUSH1 0x40 MLOAD PUSH2 0xEE SWAP2 SWAP1 PUSH2 0x493 JUMP JUMPDEST PUSH1 0x40 MLOAD DUP1 SWAP2 SUB SWAP1 RETURN JUMPDEST PUSH2 0x111 PUSH1 0x4 DUP1 CALLDATASIZE SUB DUP2 ADD SWAP1 PUSH2 0x10C SWAP2 SWAP1 PUSH2 0x6F6 JUMP JUMPDEST PUSH2 0x271 JUMP JUMPDEST PUSH1 0x40 MLOAD PUSH2 0x11E SWAP2 SWAP1 PUSH2 0x493 JUMP JUMPDEST PUSH1 0x40 MLOAD DUP1 SWAP2 SUB SWAP1 RETURN JUMPDEST PUSH2 0x141 PUSH1 0x4 DUP1 CALLDATASIZE SUB DUP2 ADD SWAP1 PUSH2 0x13C SWAP2 SWAP1 PUSH2 0x4E7 JUMP JUMPDEST PUSH2 0x29E JUMP JUMPDEST STOP JUMPDEST PUSH2 0x15D PUSH1 0x4 DUP1 CALLDATASIZE SUB DUP2 ADD SWAP1 PUSH2 0x158 SWAP2 SWAP1 PUSH2 0x4E7 JUMP JUMPDEST PUSH2 0x2B3 JUMP JUMPDEST PUSH1 0x40 MLOAD PUSH2 0x16B SWAP3 SWAP2 SWAP1 PUSH2 0x59C JUMP JUMPDEST PUSH1 0x40 MLOAD DUP1 SWAP2 SUB SWAP1 RETURN JUMPDEST PUSH2 0x18E PUSH1 0x4 DUP1 CALLDATASIZE SUB DUP2 ADD SWAP1 PUSH2 0x189 SWAP2 SWAP1 PUSH2 0x73D JUMP JUMPDEST PUSH2 0x360 JUMP JUMPDEST STOP JUMPDEST PUSH2 0x198 PUSH2 0x3E4 JUMP JUMPDEST PUSH1 0x40 MLOAD PUSH2 0x1A6 SWAP3 SWAP2 SWAP1 PUSH2 0x59C JUMP JUMPDEST PUSH1 0x40 MLOAD DUP1 SWAP2 SUB SWAP1 RETURN JUMPDEST PUSH0 SLOAD DUP2 JUMP JUMPDEST PUSH1 0x3 DUP2 DUP2 SLOAD DUP2 LT PUSH2 0x1C3 JUMPI PUSH0 DUP1 REVERT JUMPDEST SWAP1 PUSH0 MSTORE PUSH1 0x20 PUSH0 KECCAK256 SWAP1 PUSH1 0x2 MUL ADD PUSH0 SWAP2 POP SWAP1 POP DUP1 PUSH0 ADD SLOAD SWAP1 DUP1 PUSH1 0x1 ADD DUP1 SLOAD PUSH2 0x1E8 SWAP1 PUSH2 0x7C4 JUMP JUMPDEST DUP1 PUSH1 0x1F ADD PUSH1 0x20 DUP1 SWAP2 DIV MUL PUSH1 0x20 ADD PUSH1 0x40 MLOAD SWAP1 DUP2 ADD PUSH1 0x40 MSTORE DUP1 SWAP3 SWAP2 SWAP1 DUP2 DUP2 MSTORE PUSH1 0x20 ADD DUP3 DUP1 SLOAD PUSH2 0x214 SWAP1 PUSH2 0x7C4 JUMP JUMPDEST DUP1 ISZERO PUSH2 0x25F JUMPI DUP1 PUSH1 0x1F LT PUSH2 0x236 JUMPI PUSH2 0x100 DUP1 DUP4 SLOAD DIV MUL DUP4 MSTORE SWAP2 PUSH1 0x20 ADD SWAP2 PUSH2 0x25F JUMP JUMPDEST DUP3 ADD SWAP2 SWAP1 PUSH0 MSTORE PUSH1 0x20 PUSH0 KECCAK256 SWAP1 JUMPDEST DUP2 SLOAD DUP2 MSTORE SWAP1 PUSH1 0x1 ADD SWAP1 PUSH1 0x20 ADD DUP1 DUP4 GT PUSH2 0x242 JUMPI DUP3 SWAP1 SUB PUSH1 0x1F AND DUP3 ADD SWAP2 JUMPDEST POP POP POP POP POP SWAP1 POP DUP3 JUMP JUMPDEST PUSH0 DUP1 SLOAD SWAP1 POP SWAP1 JUMP JUMPDEST PUSH1 0xA DUP2 DUP1 MLOAD PUSH1 0x20 DUP2 ADD DUP3 ADD DUP1 MLOAD DUP5 DUP3 MSTORE PUSH1 0x20 DUP4 ADD PUSH1 0x20 DUP6 ADD KECCAK256 DUP2 DUP4 MSTORE DUP1 SWAP6 POP POP POP POP POP POP PUSH0 SWAP2 POP SWAP1 POP SLOAD DUP2 JUMP JUMPDEST PUSH1 0x5 DUP2 PUSH2 0x2AB SWAP2 SWAP1 PUSH2 0x821 JUMP JUMPDEST PUSH0 DUP2 SWAP1 SSTORE POP POP JUMP JUMPDEST PUSH1 0x4 DUP2 PUSH1 0x3 DUP2 LT PUSH2 0x2C2 JUMPI PUSH0 DUP1 REVERT JUMPDEST PUSH1 0x2 MUL ADD PUSH0 SWAP2 POP SWAP1 POP DUP1 PUSH0 ADD SLOAD SWAP1 DUP1 PUSH1 0x1 ADD DUP1 SLOAD PUSH2 0x2DF SWAP1 PUSH2 0x7C4 JUMP JUMPDEST DUP1 PUSH1 0x1F ADD PUSH1 0x20 DUP1 SWAP2 DIV MUL PUSH1 0x20 ADD PUSH1 0x40 MLOAD SWAP1 DUP2 ADD PUSH1 0x40 MSTORE DUP1 SWAP3 SWAP2 SWAP1 DUP2 DUP2 MSTORE PUSH1 0x20 ADD DUP3 DUP1 SLOAD PUSH2 0x30B SWAP1 PUSH2 0x7C4 JUMP JUMPDEST DUP1 ISZERO PUSH2 0x356 JUMPI DUP1 PUSH1 0x1F LT PUSH2 0x32D JUMPI PUSH2 0x100 DUP1 DUP4 SLOAD DIV MUL DUP4 MSTORE SWAP2 PUSH1 0x20 ADD SWAP2 PUSH2 0x356 JUMP JUMPDEST DUP3 ADD SWAP2 SWAP1 PUSH0 MSTORE PUSH1 0x20 PUSH0 KECCAK256 SWAP1 JUMPDEST DUP2 SLOAD DUP2 MSTORE SWAP1 PUSH1 0x1 ADD SWAP1 PUSH1 0x20 ADD DUP1 DUP4 GT PUSH2 0x339 JUMPI DUP3 SWAP1 SUB PUSH1 0x1F AND DUP3 ADD SWAP2 JUMPDEST POP POP POP POP POP SWAP1 POP DUP3 JUMP JUMPDEST PUSH1 0x3 PUSH1 0x40 MLOAD DUP1 PUSH1 0x40 ADD PUSH1 0x40 MSTORE DUP1 DUP4 DUP2 MSTORE PUSH1 0x20 ADD DUP5 DUP2 MSTORE POP SWAP1 DUP1 PUSH1 0x1 DUP2 SLOAD ADD DUP1 DUP3 SSTORE DUP1 SWAP2 POP POP PUSH1 0x1 SWAP1 SUB SWAP1 PUSH0 MSTORE PUSH1 0x20 PUSH0 KECCAK256 SWAP1 PUSH1 0x2 MUL ADD PUSH0 SWAP1 SWAP2 SWAP1 SWAP2 SWAP1 SWAP2 POP PUSH0 DUP3 ADD MLOAD DUP2 PUSH0 ADD SSTORE PUSH1 0x20 DUP3 ADD MLOAD DUP2 PUSH1 0x1 ADD SWAP1 DUP2 PUSH2 0x3BA SWAP2 SWAP1 PUSH2 0x9F1 JUMP JUMPDEST POP POP POP DUP1 PUSH1 0xA DUP4 PUSH1 0x40 MLOAD PUSH2 0x3CE SWAP2 SWAP1 PUSH2 0xAFA JUMP JUMPDEST SWAP1 DUP2 MSTORE PUSH1 0x20 ADD PUSH1 0x40 MLOAD DUP1 SWAP2 SUB SWAP1 KECCAK256 DUP2 SWAP1 SSTORE POP POP POP JUMP JUMPDEST PUSH1 0x1 DUP1 PUSH0 ADD SLOAD SWAP1 DUP1 PUSH1 0x1 ADD DUP1 SLOAD PUSH2 0x3FA SWAP1 PUSH2 0x7C4 JUMP JUMPDEST DUP1 PUSH1 0x1F ADD PUSH1 0x20 DUP1 SWAP2 DIV MUL PUSH1 0x20 ADD PUSH1 0x40 MLOAD SWAP1 DUP2 ADD PUSH1 0x40 MSTORE DUP1 SWAP3 SWAP2 SWAP1 DUP2 DUP2 MSTORE PUSH1 0x20 ADD DUP3 DUP1 SLOAD PUSH2 0x426 SWAP1 PUSH2 0x7C4 JUMP JUMPDEST DUP1 ISZERO PUSH2 0x471 JUMPI DUP1 PUSH1 0x1F LT PUSH2 0x448 JUMPI PUSH2 0x100 DUP1 DUP4 SLOAD DIV MUL DUP4 MSTORE SWAP2 PUSH1 0x20 ADD SWAP2 PUSH2 0x471 JUMP JUMPDEST DUP3 ADD SWAP2 SWAP1 PUSH0 MSTORE PUSH1 0x20 PUSH0 KECCAK256 SWAP1 JUMPDEST DUP2 SLOAD DUP2 MSTORE SWAP1 PUSH1 0x1 ADD SWAP1 PUSH1 0x20 ADD DUP1 DUP4 GT PUSH2 0x454 JUMPI DUP3 SWAP1 SUB PUSH1 0x1F AND DUP3 ADD SWAP2 JUMPDEST POP POP POP POP POP SWAP1 POP DUP3 JUMP JUMPDEST PUSH0 DUP2 SWAP1 POP SWAP2 SWAP1 POP JUMP JUMPDEST PUSH2 0x48D DUP2 PUSH2 0x47B JUMP JUMPDEST DUP3 MSTORE POP POP JUMP JUMPDEST PUSH0 PUSH1 0x20 DUP3 ADD SWAP1 POP PUSH2 0x4A6 PUSH0 DUP4 ADD DUP5 PUSH2 0x484 JUMP JUMPDEST SWAP3 SWAP2 POP POP JUMP JUMPDEST PUSH0 PUSH1 0x40 MLOAD SWAP1 POP SWAP1 JUMP JUMPDEST PUSH0 DUP1 REVERT JUMPDEST PUSH0 DUP1 REVERT JUMPDEST PUSH2 0x4C6 DUP2 PUSH2 0x47B JUMP JUMPDEST DUP2 EQ PUSH2 0x4D0 JUMPI PUSH0 DUP1 REVERT JUMPDEST POP JUMP JUMPDEST PUSH0 DUP2 CALLDATALOAD SWAP1 POP PUSH2 0x4E1 DUP2 PUSH2 0x4BD JUMP JUMPDEST SWAP3 SWAP2 POP POP JUMP JUMPDEST PUSH0 PUSH1 0x20 DUP3 DUP5 SUB SLT ISZERO PUSH2 0x4FC JUMPI PUSH2 0x4FB PUSH2 0x4B5 JUMP JUMPDEST JUMPDEST PUSH0 PUSH2 0x509 DUP5 DUP3 DUP6 ADD PUSH2 0x4D3 JUMP JUMPDEST SWAP2 POP POP SWAP3 SWAP2 POP POP JUMP JUMPDEST PUSH0 DUP2 MLOAD SWAP1 POP SWAP2 SWAP1 POP JUMP JUMPDEST PUSH0 DUP3 DUP3 MSTORE PUSH1 0x20 DUP3 ADD SWAP1 POP SWAP3 SWAP2 POP POP JUMP JUMPDEST PUSH0 JUMPDEST DUP4 DUP2 LT ISZERO PUSH2 0x549 JUMPI DUP1 DUP3 ADD MLOAD DUP2 DUP5 ADD MSTORE PUSH1 0x20 DUP2 ADD SWAP1 POP PUSH2 0x52E JUMP JUMPDEST PUSH0 DUP5 DUP5 ADD MSTORE POP POP POP POP JUMP JUMPDEST PUSH0 PUSH1 0x1F NOT PUSH1 0x1F DUP4 ADD AND SWAP1 POP SWAP2 SWAP1 POP JUMP JUMPDEST PUSH0 PUSH2 0x56E DUP3 PUSH2 0x512 JUMP JUMPDEST PUSH2 0x578 DUP2 DUP6 PUSH2 0x51C JUMP JUMPDEST SWAP4 POP PUSH2 0x588 DUP2 DUP6 PUSH1 0x20 DUP7 ADD PUSH2 0x52C JUMP JUMPDEST PUSH2 0x591 DUP2 PUSH2 0x554 JUMP JUMPDEST DUP5 ADD SWAP2 POP POP SWAP3 SWAP2 POP POP JUMP JUMPDEST PUSH0 PUSH1 0x40 DUP3 ADD SWAP1 POP PUSH2 0x5AF PUSH0 DUP4 ADD DUP6 PUSH2 0x484 JUMP JUMPDEST DUP2 DUP2 SUB PUSH1 0x20 DUP4 ADD MSTORE PUSH2 0x5C1 DUP2 DUP5 PUSH2 0x564 JUMP JUMPDEST SWAP1 POP SWAP4 SWAP3 POP POP POP JUMP JUMPDEST PUSH0 DUP1 REVERT JUMPDEST PUSH0 DUP1 REVERT JUMPDEST PUSH32 0x4E487B7100000000000000000000000000000000000000000000000000000000 PUSH0 MSTORE PUSH1 0x41 PUSH1 0x4 MSTORE PUSH1 0x24 PUSH0 REVERT JUMPDEST PUSH2 0x608 DUP3 PUSH2 0x554 JUMP JUMPDEST DUP2 ADD DUP2 DUP2 LT PUSH8 0xFFFFFFFFFFFFFFFF DUP3 GT OR ISZERO PUSH2 0x627 JUMPI PUSH2 0x626 PUSH2 0x5D2 JUMP JUMPDEST JUMPDEST DUP1 PUSH1 0x40 MSTORE POP POP POP JUMP JUMPDEST PUSH0 PUSH2 0x639 PUSH2 0x4AC JUMP JUMPDEST SWAP1 POP PUSH2 0x645 DUP3 DUP3 PUSH2 0x5FF JUMP JUMPDEST SWAP2 SWAP1 POP JUMP JUMPDEST PUSH0 PUSH8 0xFFFFFFFFFFFFFFFF DUP3 GT ISZERO PUSH2 0x664 JUMPI PUSH2 0x663 PUSH2 0x5D2 JUMP JUMPDEST JUMPDEST PUSH2 0x66D DUP3 PUSH2 0x554 JUMP JUMPDEST SWAP1 POP PUSH1 0x20 DUP2 ADD SWAP1 POP SWAP2 SWAP1 POP JUMP JUMPDEST DUP3 DUP2 DUP4 CALLDATACOPY PUSH0 DUP4 DUP4 ADD MSTORE POP POP POP JUMP JUMPDEST PUSH0 PUSH2 0x69A PUSH2 0x695 DUP5 PUSH2 0x64A JUMP JUMPDEST PUSH2 0x630 JUMP JUMPDEST SWAP1 POP DUP3 DUP2 MSTORE PUSH1 0x20 DUP2 ADD DUP5 DUP5 DUP5 ADD GT ISZERO PUSH2 0x6B6 JUMPI PUSH2 0x6B5 PUSH2 0x5CE JUMP JUMPDEST JUMPDEST PUSH2 0x6C1 DUP5 DUP3 DUP6 PUSH2 0x67A JUMP JUMPDEST POP SWAP4 SWAP3 POP POP POP JUMP JUMPDEST PUSH0 DUP3 PUSH1 0x1F DUP4 ADD SLT PUSH2 0x6DD JUMPI PUSH2 0x6DC PUSH2 0x5CA JUMP JUMPDEST JUMPDEST DUP2 CALLDATALOAD PUSH2 0x6ED DUP5 DUP3 PUSH1 0x20 DUP7 ADD PUSH2 0x688 JUMP JUMPDEST SWAP2 POP POP SWAP3 SWAP2 POP POP JUMP JUMPDEST PUSH0 PUSH1 0x20 DUP3 DUP5 SUB SLT ISZERO PUSH2 0x70B JUMPI PUSH2 0x70A PUSH2 0x4B5 JUMP JUMPDEST JUMPDEST PUSH0 DUP3 ADD CALLDATALOAD PUSH8 0xFFFFFFFFFFFFFFFF DUP2 GT ISZERO PUSH2 0x728 JUMPI PUSH2 0x727 PUSH2 0x4B9 JUMP JUMPDEST JUMPDEST PUSH2 0x734 DUP5 DUP3 DUP6 ADD PUSH2 0x6C9 JUMP JUMPDEST SWAP2 POP POP SWAP3 SWAP2 POP POP JUMP JUMPDEST PUSH0 DUP1 PUSH1 0x40 DUP4 DUP6 SUB SLT ISZERO PUSH2 0x753 JUMPI PUSH2 0x752 PUSH2 0x4B5 JUMP JUMPDEST JUMPDEST PUSH0 DUP4 ADD CALLDATALOAD PUSH8 0xFFFFFFFFFFFFFFFF DUP2 GT ISZERO PUSH2 0x770 JUMPI PUSH2 0x76F PUSH2 0x4B9 JUMP JUMPDEST JUMPDEST PUSH2 0x77C DUP6 DUP3 DUP7 ADD PUSH2 0x6C9 JUMP JUMPDEST SWAP3 POP POP PUSH1 0x20 PUSH2 0x78D DUP6 DUP3 DUP7 ADD PUSH2 0x4D3 JUMP JUMPDEST SWAP2 POP POP SWAP3 POP SWAP3 SWAP1 POP JUMP JUMPDEST PUSH32 0x4E487B7100000000000000000000000000000000000000000000000000000000 PUSH0 MSTORE PUSH1 0x22 PUSH1 0x4 MSTORE PUSH1 0x24 PUSH0 REVERT JUMPDEST PUSH0 PUSH1 0x2 DUP3 DIV SWAP1 POP PUSH1 0x1 DUP3 AND DUP1 PUSH2 0x7DB JUMPI PUSH1 0x7F DUP3 AND SWAP2 POP JUMPDEST PUSH1 0x20 DUP3 LT DUP2 SUB PUSH2 0x7EE JUMPI PUSH2 0x7ED PUSH2 0x797 JUMP JUMPDEST JUMPDEST POP SWAP2 SWAP1 POP JUMP JUMPDEST PUSH32 0x4E487B7100000000000000000000000000000000000000000000000000000000 PUSH0 MSTORE PUSH1 0x11 PUSH1 0x4 MSTORE PUSH1 0x24 PUSH0 REVERT JUMPDEST PUSH0 PUSH2 0x82B DUP3 PUSH2 0x47B JUMP JUMPDEST SWAP2 POP PUSH2 0x836 DUP4 PUSH2 0x47B JUMP JUMPDEST SWAP3 POP DUP3 DUP3 ADD SWAP1 POP DUP1 DUP3 GT ISZERO PUSH2 0x84E JUMPI PUSH2 0x84D PUSH2 0x7F4 JUMP JUMPDEST JUMPDEST SWAP3 SWAP2 POP POP JUMP JUMPDEST PUSH0 DUP2 SWAP1 POP DUP2 PUSH0 MSTORE PUSH1 0x20 PUSH0 KECCAK256 SWAP1 POP SWAP2 SWAP1 POP JUMP JUMPDEST PUSH0 PUSH1 0x20 PUSH1 0x1F DUP4 ADD DIV SWAP1 POP SWAP2 SWAP1 POP JUMP JUMPDEST PUSH0 DUP3 DUP3 SHL SWAP1 POP SWAP3 SWAP2 POP POP JUMP JUMPDEST PUSH0 PUSH1 0x8 DUP4 MUL PUSH2 0x8B0 PUSH32 0xFFFFFFFFFFFFFFFFFFFFFFFFFFFFFFFFFFFFFFFFFFFFFFFFFFFFFFFFFFFFFFFF DUP3 PUSH2 0x875 JUMP JUMPDEST PUSH2 0x8BA DUP7 DUP4 PUSH2 0x875 JUMP JUMPDEST SWAP6 POP DUP1 NOT DUP5 AND SWAP4 POP DUP1 DUP7 AND DUP5 OR SWAP3 POP POP POP SWAP4 SWAP3 POP POP POP JUMP JUMPDEST PUSH0 DUP2 SWAP1 POP SWAP2 SWAP1 POP JUMP JUMPDEST PUSH0 PUSH2 0x8F5 PUSH2 0x8F0 PUSH2 0x8EB DUP5 PUSH2 0x47B JUMP JUMPDEST PUSH2 0x8D2 JUMP JUMPDEST PUSH2 0x47B JUMP JUMPDEST SWAP1 POP SWAP2 SWAP1 POP JUMP JUMPDEST PUSH0 DUP2 SWAP1 POP SWAP2 SWAP1 POP JUMP JUMPDEST PUSH2 0x90E DUP4 PUSH2 0x8DB JUMP JUMPDEST PUSH2 0x922 PUSH2 0x91A DUP3 PUSH2 0x8FC JUMP JUMPDEST DUP5 DUP5 SLOAD PUSH2 0x881 JUMP JUMPDEST DUP3 SSTORE POP POP POP POP JUMP JUMPDEST PUSH0 SWAP1 JUMP JUMPDEST PUSH2 0x936 PUSH2 0x92A JUMP JUMPDEST PUSH2 0x941 DUP2 DUP5 DUP5 PUSH2 0x905 JUMP JUMPDEST POP POP POP JUMP JUMPDEST JUMPDEST DUP2 DUP2 LT ISZERO PUSH2 0x964 JUMPI PUSH2 0x959 PUSH0 DUP3 PUSH2 0x92E JUMP JUMPDEST PUSH1 0x1 DUP2 ADD SWAP1 POP PUSH2 0x947 JUMP JUMPDEST POP POP JUMP JUMPDEST PUSH1 0x1F DUP3 GT ISZERO PUSH2 0x9A9 JUMPI PUSH2 0x97A DUP2 PUSH2 0x854 JUMP JUMPDEST PUSH2 0x983 DUP5 PUSH2 0x866 JUMP JUMPDEST DUP2 ADD PUSH1 0x20 DUP6 LT ISZERO PUSH2 0x992 JUMPI DUP2 SWAP1 POP JUMPDEST PUSH2 0x9A6 PUSH2 0x99E DUP6 PUSH2 0x866 JUMP JUMPDEST DUP4 ADD DUP3 PUSH2 0x946 JUMP JUMPDEST POP POP JUMPDEST POP POP POP JUMP JUMPDEST PUSH0 DUP3 DUP3 SHR SWAP1 POP SWAP3 SWAP2 POP POP JUMP JUMPDEST PUSH0 PUSH2 0x9C9 PUSH0 NOT DUP5 PUSH1 0x8 MUL PUSH2 0x9AE JUMP JUMPDEST NOT DUP1 DUP4 AND SWAP2 POP POP SWAP3 SWAP2 POP POP JUMP JUMPDEST PUSH0 PUSH2 0x9E1 DUP4 DUP4 PUSH2 0x9BA JUMP JUMPDEST SWAP2 POP DUP3 PUSH1 0x2 MUL DUP3 OR SWAP1 POP SWAP3 SWAP2 POP POP JUMP JUMPDEST PUSH2 0x9FA DUP3 PUSH2 0x512 JUMP JUMPDEST PUSH8 0xFFFFFFFFFFFFFFFF DUP2 GT ISZERO PUSH2 0xA13 JUMPI PUSH2 0xA12 PUSH2 0x5D2 JUMP JUMPDEST JUMPDEST PUSH2 0xA1D DUP3 SLOAD PUSH2 0x7C4 JUMP JUMPDEST PUSH2 0xA28 DUP3 DUP3 DUP6 PUSH2 0x968 JUMP JUMPDEST PUSH0 PUSH1 0x20 SWAP1 POP PUSH1 0x1F DUP4 GT PUSH1 0x1 DUP2 EQ PUSH2 0xA59 JUMPI PUSH0 DUP5 ISZERO PUSH2 0xA47 JUMPI DUP3 DUP8 ADD MLOAD SWAP1 POP JUMPDEST PUSH2 0xA51 DUP6 DUP3 PUSH2 0x9D6 JUMP JUMPDEST DUP7 SSTORE POP PUSH2 0xAB8 JUMP JUMPDEST PUSH1 0x1F NOT DUP5 AND PUSH2 0xA67 DUP7 PUSH2 0x854 JUMP JUMPDEST PUSH0 JUMPDEST DUP3 DUP2 LT ISZERO PUSH2 0xA8E JUMPI DUP5 DUP10 ADD MLOAD DUP3 SSTORE PUSH1 0x1 DUP3 ADD SWAP2 POP PUSH1 0x20 DUP6 ADD SWAP5 POP PUSH1 0x20 DUP2 ADD SWAP1 POP PUSH2 0xA69 JUMP JUMPDEST DUP7 DUP4 LT ISZERO PUSH2 0xAAB JUMPI DUP5 DUP10 ADD MLOAD PUSH2 0xAA7 PUSH1 0x1F DUP10 AND DUP3 PUSH2 0x9BA JUMP JUMPDEST DUP4 SSTORE POP JUMPDEST PUSH1 0x1 PUSH1 0x2 DUP9 MUL ADD DUP9 SSTORE POP POP POP JUMPDEST POP POP POP POP POP POP JUMP JUMPDEST PUSH0 DUP2 SWAP1 POP SWAP3 SWAP2 POP POP JUMP JUMPDEST PUSH0 PUSH2 0xAD4 DUP3 PUSH2 0x512 JUMP JUMPDEST PUSH2 0xADE DUP2 DUP6 PUSH2 0xAC0 JUMP JUMPDEST SWAP4 POP PUSH2 0xAEE DUP2 DUP6 PUSH1 0x20 DUP7 ADD PUSH2 0x52C JUMP JUMPDEST DUP1 DUP5 ADD SWAP2 POP POP SWAP3 SWAP2 POP POP JUMP JUMPDEST PUSH0 PUSH2 0xB05 DUP3 DUP5 PUSH2 0xACA JUMP JUMPDEST SWAP2 POP DUP2 SWAP1 POP SWAP3 SWAP2 POP POP JUMP INVALID LOG2 PUSH5 0x6970667358 0x22 SLT KECCAK256 0xDC PUSH29 0xDA1238981BE0BCEEEDA57DBE1EEF471A0001E2A6C7CAD496CBD297CCBA PUSH21 0x64736F6C6343000818003300000000000000000000 "
		},
		"gasEstimates": {
			"creation": {
				"codeDepositCost": "577200",
				"executionCost": "infinite",
				"totalCost": "infinite"
			},
			"external": {
				"addPerson(string,uint256)": "infinite",
				"listofPeople(uint256)": "infinite",
				"myFriend()": "infinite",
				"myfavNumber()": "2425",
				"nameToFavNumber(string)": "infinite",
				"retrieve()": "2477",
				"staticListofPeople(uint256)": "infinite",
				"store(uint256)": "infinite"
			}
		},
		"methodIdentifiers": {
			"addPerson(string,uint256)": "6f760f41",
			"listofPeople(uint256)": "2e5effac",
			"myFriend()": "af16a723",
			"myfavNumber()": "1c124f1b",
			"nameToFavNumber(string)": "43ec8f47",
			"retrieve()": "2e64cec1",
			"staticListofPeople(uint256)": "6231cc16",
			"store(uint256)": "6057361d"
		}
	},
	"abi": [
		{
			"inputs": [
				{
					"internalType": "string",
					"name": "_name",
					"type": "string"
				},
				{
					"internalType": "uint256",
					"name": "_favNumber",
					"type": "uint256"
				}
			],
			"name": "addPerson",
			"outputs": [],
			"stateMutability": "nonpayable",
			"type": "function"
		},
		{
			"inputs": [
				{
					"internalType": "uint256",
					"name": "",
					"type": "uint256"
				}
			],
			"name": "listofPeople",
			"outputs": [
				{
					"internalType": "uint256",
					"name": "favNumber",
					"type": "uint256"
				},
				{
					"internalType": "string",
					"name": "name",
					"type": "string"
				}
			],
			"stateMutability": "view",
			"type": "function"
		},
		{
			"inputs": [],
			"name": "myFriend",
			"outputs": [
				{
					"internalType": "uint256",
					"name": "favNumber",
					"type": "uint256"
				},
				{
					"internalType": "string",
					"name": "name",
					"type": "string"
				}
			],
			"stateMutability": "view",
			"type": "function"
		},
		{
			"inputs": [],
			"name": "myfavNumber",
			"outputs": [
				{
					"internalType": "uint256",
					"name": "",
					"type": "uint256"
				}
			],
			"stateMutability": "view",
			"type": "function"
		},
		{
			"inputs": [
				{
					"internalType": "string",
					"name": "",
					"type": "string"
				}
			],
			"name": "nameToFavNumber",
			"outputs": [
				{
					"internalType": "uint256",
					"name": "",
					"type": "uint256"
				}
			],
			"stateMutability": "view",
			"type": "function"
		},
		{
			"inputs": [],
			"name": "retrieve",
			"outputs": [
				{
					"internalType": "uint256",
					"name": "",
					"type": "uint256"
				}
			],
			"stateMutability": "view",
			"type": "function"
		},
		{
			"inputs": [
				{
					"internalType": "uint256",
					"name": "",
					"type": "uint256"
				}
			],
			"name": "staticListofPeople",
			"outputs": [
				{
					"internalType": "uint256",
					"name": "favNumber",
					"type": "uint256"
				},
				{
					"internalType": "string",
					"name": "name",
					"type": "string"
				}
			],
			"stateMutability": "view",
			"type": "function"
		},
		{
			"inputs": [
				{
					"internalType": "uint256",
					"name": "_newNumber",
					"type": "uint256"
				}
			],
			"name": "store",
			"outputs": [],
			"stateMutability": "nonpayable",
			"type": "function"
		}
	]
}